{
  "contractName": "eVote",
  "abi": [
    {
      "inputs": [
        {
          "internalType": "address",
          "name": "_verifierMerkleTreeAddress",
          "type": "address"
        },
        {
          "internalType": "address",
          "name": "_verifierZKSNARKAddress",
          "type": "address"
        },
        {
          "internalType": "bytes32",
          "name": "_usersMerkleTreeRoot",
          "type": "bytes32"
        },
        {
          "internalType": "uint256",
          "name": "_registrationBlockInterval",
          "type": "uint256"
        },
        {
          "internalType": "uint256",
          "name": "_votingBlockInterval",
          "type": "uint256"
        },
        {
          "internalType": "uint256",
          "name": "_tallyBlockInterval",
          "type": "uint256"
        }
      ],
      "stateMutability": "payable",
      "type": "constructor",
      "payable": true
    },
    {
      "inputs": [],
      "name": "DEPOSIT",
      "outputs": [
        {
          "internalType": "uint256",
          "name": "",
          "type": "uint256"
        }
      ],
      "stateMutability": "view",
      "type": "function",
      "constant": true
    },
    {
      "inputs": [],
      "name": "admin",
      "outputs": [
        {
          "internalType": "address",
          "name": "",
          "type": "address"
        }
      ],
      "stateMutability": "view",
      "type": "function",
      "constant": true
    },
    {
      "inputs": [
        {
          "internalType": "address",
          "name": "",
          "type": "address"
        },
        {
          "internalType": "uint256",
          "name": "",
          "type": "uint256"
        }
      ],
      "name": "encryptedVotes",
      "outputs": [
        {
          "internalType": "uint256",
          "name": "",
          "type": "uint256"
        }
      ],
      "stateMutability": "view",
      "type": "function",
      "constant": true
    },
    {
      "inputs": [
        {
          "internalType": "uint256",
          "name": "",
          "type": "uint256"
        }
      ],
      "name": "encryptedVotesXsign",
      "outputs": [
        {
          "internalType": "uint256",
          "name": "",
          "type": "uint256"
        }
      ],
      "stateMutability": "view",
      "type": "function",
      "constant": true
    },
    {
      "inputs": [],
      "name": "finishRegistartionBlockNumber",
      "outputs": [
        {
          "internalType": "uint256",
          "name": "",
          "type": "uint256"
        }
      ],
      "stateMutability": "view",
      "type": "function",
      "constant": true
    },
    {
      "inputs": [],
      "name": "finishTallyBlockNumber",
      "outputs": [
        {
          "internalType": "uint256",
          "name": "",
          "type": "uint256"
        }
      ],
      "stateMutability": "view",
      "type": "function",
      "constant": true
    },
    {
      "inputs": [],
      "name": "finishVotingBlockNumber",
      "outputs": [
        {
          "internalType": "uint256",
          "name": "",
          "type": "uint256"
        }
      ],
      "stateMutability": "view",
      "type": "function",
      "constant": true
    },
    {
      "inputs": [],
      "name": "nVoters",
      "outputs": [
        {
          "internalType": "uint256",
          "name": "",
          "type": "uint256"
        }
      ],
      "stateMutability": "view",
      "type": "function",
      "constant": true
    },
    {
      "inputs": [],
      "name": "pm1d2",
      "outputs": [
        {
          "internalType": "uint256",
          "name": "",
          "type": "uint256"
        }
      ],
      "stateMutability": "view",
      "type": "function",
      "constant": true
    },
    {
      "inputs": [
        {
          "internalType": "address",
          "name": "",
          "type": "address"
        },
        {
          "internalType": "uint256",
          "name": "",
          "type": "uint256"
        }
      ],
      "name": "publicKeys",
      "outputs": [
        {
          "internalType": "uint256",
          "name": "",
          "type": "uint256"
        }
      ],
      "stateMutability": "view",
      "type": "function",
      "constant": true
    },
    {
      "inputs": [
        {
          "internalType": "address",
          "name": "",
          "type": "address"
        }
      ],
      "name": "refunded",
      "outputs": [
        {
          "internalType": "bool",
          "name": "",
          "type": "bool"
        }
      ],
      "stateMutability": "view",
      "type": "function",
      "constant": true
    },
    {
      "inputs": [],
      "name": "usersMerkleTreeRoot",
      "outputs": [
        {
          "internalType": "bytes32",
          "name": "",
          "type": "bytes32"
        }
      ],
      "stateMutability": "view",
      "type": "function",
      "constant": true
    },
    {
      "inputs": [],
      "name": "voteResult",
      "outputs": [
        {
          "internalType": "uint256",
          "name": "",
          "type": "uint256"
        }
      ],
      "stateMutability": "view",
      "type": "function",
      "constant": true
    },
    {
      "inputs": [
        {
          "internalType": "uint256",
          "name": "",
          "type": "uint256"
        }
      ],
      "name": "voters",
      "outputs": [
        {
          "internalType": "address",
          "name": "",
          "type": "address"
        }
      ],
      "stateMutability": "view",
      "type": "function",
      "constant": true
    },
    {
      "inputs": [
        {
          "internalType": "uint256[]",
          "name": "_pubKey",
          "type": "uint256[]"
        },
        {
          "internalType": "uint256[2]",
          "name": "proof_a",
          "type": "uint256[2]"
        },
        {
          "internalType": "uint256[2][2]",
          "name": "proof_b",
          "type": "uint256[2][2]"
        },
        {
          "internalType": "uint256[2]",
          "name": "proof_c",
          "type": "uint256[2]"
        },
        {
          "internalType": "bytes32[]",
          "name": "_merkleProof",
          "type": "bytes32[]"
        }
      ],
      "name": "register",
      "outputs": [],
      "stateMutability": "payable",
      "type": "function",
      "payable": true
    },
    {
      "inputs": [
        {
          "internalType": "uint256[2]",
          "name": "_encryptedVote",
          "type": "uint256[2]"
        },
        {
          "internalType": "uint256",
          "name": "_Idx",
          "type": "uint256"
        },
        {
          "internalType": "uint256[2]",
          "name": "proof_a",
          "type": "uint256[2]"
        },
        {
          "internalType": "uint256[2][2]",
          "name": "proof_b",
          "type": "uint256[2][2]"
        },
        {
          "internalType": "uint256[2]",
          "name": "proof_c",
          "type": "uint256[2]"
        }
      ],
      "name": "castVote",
      "outputs": [],
      "stateMutability": "nonpayable",
      "type": "function"
    },
    {
      "inputs": [
        {
          "internalType": "uint256",
          "name": "_result",
          "type": "uint256"
        },
        {
          "internalType": "uint256[2]",
          "name": "proof_a",
          "type": "uint256[2]"
        },
        {
          "internalType": "uint256[2][2]",
          "name": "proof_b",
          "type": "uint256[2][2]"
        },
        {
          "internalType": "uint256[2]",
          "name": "proof_c",
          "type": "uint256[2]"
        }
      ],
      "name": "setTally",
      "outputs": [],
      "stateMutability": "nonpayable",
      "type": "function"
    },
    {
      "inputs": [],
      "name": "refund",
      "outputs": [],
      "stateMutability": "nonpayable",
      "type": "function"
    }
  ],
  "bytecode": "0x60a0604052600060809081526200001b90600c90600162000133565b50604051620019b2380380620019b28339810160408190526200003e91620001bc565b66038d7ea4c680003414620000b3576040517f08c379a000000000000000000000000000000000000000000000000000000000815260206004820152601560248201527f496e76616c6964206465706f7369742076616c75650000000000000000000000604482015260640160405180910390fd5b60008054600160a060020a03808916600160a060020a031992831617909255600180549288169282169290921790915560028054909116331790556007849055620000ff834362000219565b60088190556200011190839062000219565b60098190556200012390829062000219565b600a555062000259945050505050565b82805482825590600052602060002090810192821562000176579160200282015b8281111562000176578251829060ff1690559160200191906001019062000154565b506200018492915062000188565b5090565b5b8082111562000184576000815560010162000189565b8051600160a060020a0381168114620001b757600080fd5b919050565b60008060008060008060c08789031215620001d657600080fd5b620001e1876200019f565b9550620001f1602088016200019f565b945060408701519350606087015192506080870151915060a087015190509295509295509295565b6000821982111562000254577f4e487b7100000000000000000000000000000000000000000000000000000000600052601160045260246000fd5b500190565b61174980620002696000396000f3fe608060405260043610610105576000357c0100000000000000000000000000000000000000000000000000000000900480638a671dbb116100a25780638a671dbb14610209578063942743e31461021e5780639d0c03e51461023e578063c033a49014610272578063d3ca9aec146102b2578063d81c8e52146102c8578063da58c7d9146102e3578063ebb3c38c1461031b578063f851a4401461033157600080fd5b80623259ea1461010a5780631078255514610133578063260b618d1461015357806345568da814610173578063590e1ae3146101895780635ac2938c146101a05780635e8336bd146101b35780637bca2e63146101c9578063869dd738146101e9575b600080fd5b34801561011657600080fd5b50610120600b5481565b6040519081526020015b60405180910390f35b34801561013f57600080fd5b5061012061014e36600461115d565b610351565b34801561015f57600080fd5b5061012061016e36600461115d565b610376565b34801561017f57600080fd5b5061012060075481565b34801561019557600080fd5b5061019e610392565b005b61019e6101ae366004611325565b6104c3565b3480156101bf57600080fd5b5061012060085481565b3480156101d557600080fd5b506101206101e4366004611415565b61088f565b3480156101f557600080fd5b5061019e61020436600461142e565b6108b0565b34801561021557600080fd5b50610120600381565b34801561022a57600080fd5b5061019e61023936600461147f565b610caa565b34801561024a57600080fd5b506101207f183227397098d014dc2822db40c0ac2e9419f4243cdcb848a1f0fac9f800000081565b34801561027e57600080fd5b506102a261028d3660046114e3565b60056020526000908152604090205460ff1681565b604051901515815260200161012a565b3480156102be57600080fd5b5061012060095481565b3480156102d457600080fd5b5061012066038d7ea4c6800081565b3480156102ef57600080fd5b506103036102fe366004611415565b6110c4565b604051600160a060020a03909116815260200161012a565b34801561032757600080fd5b50610120600a5481565b34801561033d57600080fd5b5060025461030390600160a060020a031681565b6003602052816000526040600020816002811061036d57600080fd5b01549150829050565b6004602052816000526040600020816002811061036d57600080fd5b600a544310156103ec5760405160e560020a62461bcd02815260206004820152601d60248201527f496e76616c6964207265636c61696d206465706f73697420706861736500000060448201526064015b60405180910390fd5b3360009081526005602052604090205460ff1615801561042e57503360009081526004602052604090205415158061042e5750600254600160a060020a031633145b61047d5760405160e560020a62461bcd02815260206004820152600f60248201527f496c6c6567616c207265636c61696d000000000000000000000000000000000060448201526064016103e3565b33600081815260056020526040808220805460ff191660011790555166038d7ea4c680009082818181858883f193505050501580156104c0573d6000803e3d6000fd5b50565b66038d7ea4c68000341461051c5760405160e560020a62461bcd02815260206004820152601560248201527f496e76616c6964206465706f7369742076616c7565000000000000000000000060448201526064016103e3565b60065460039061052d906001611537565b111561057e5760405160e560020a62461bcd02815260206004820152601f60248201527f4d6178206e756d626572206f6620766f7465727320697320726561636865640060448201526064016103e3565b60085443106105f75760405160e560020a62461bcd028152602060048201526024808201527f526567697374726174696f6e20706861736520697320616c726561647920636c60448201527f6f7365640000000000000000000000000000000000000000000000000000000060648201526084016103e3565b60005460075460408051336c010000000000000000000000000260208083019190915282516014818403018152603483019384905280519101207f4bc935d700000000000000000000000000000000000000000000000000000000909252600160a060020a0390931692634bc935d79261067592869260380161154f565b602060405180830381865afa158015610692573d6000803e3d6000fd5b505050506040513d601f19601f820116820180604052508101906106b6919061159c565b6107055760405160e560020a62461bcd02815260206004820152601460248201527f496e76616c6964204d65726b6c652070726f6f6600000000000000000000000060448201526064016103e3565b60015460405160e260020a6319d0dcd3028152600160a060020a0390911690636743734c90610741908790879087908b90600090600401611650565b602060405180830381865afa15801561075e573d6000803e3d6000fd5b505050506040513d601f19601f82011682018060405250810190610782919061159c565b6107d15760405160e560020a62461bcd02815260206004820152601060248201527f496e76616c696420444c2070726f6f660000000000000000000000000000000060448201526064016103e3565b6006805460018101825560009182527ff652222313e28459528d920b65115c16c04f3efc82aaedc97be59f3f377c0d3f01805473ffffffffffffffffffffffffffffffffffffffff1916331790556040805180820190915286519091829188919061083e5761083e611505565b602002602001015181526020018660018151811061085e5761085e611505565b6020908102919091018101519091523360009081526003909152604090206108879160026110ee565b505050505050565b600c818154811061089f57600080fd5b600091825260209091200154905081565b600254600160a060020a031633146109335760405160e560020a62461bcd02815260206004820152602360248201527f4f6e6c792061646d696e2063616e20736574207468652074616c6c792072657360448201527f756c74000000000000000000000000000000000000000000000000000000000060648201526084016103e3565b6009544310156109ae5760405160e560020a62461bcd02815260206004820152602160248201527f54616c6c79696e67207068617365206973206e6f74207965742073746172746560448201527f640000000000000000000000000000000000000000000000000000000000000060648201526084016103e3565b600a544310610a025760405160e560020a62461bcd02815260206004820181905260248201527f54616c6c79696e6720706861736520697320616c726561647920636c6f73656460448201526064016103e3565b600c54600090610a13906003611537565b610a1e906001611537565b67ffffffffffffffff811115610a3657610a36611187565b604051908082528060200260200182016040528015610a5f578160200160208202803683370190505b5090508481600081518110610a7657610a76611505565b6020908102919091010152600160005b600c54811015610ae857600c8181548110610aa357610aa3611505565b9060005260206000200154838383610abb9190611537565b81518110610acb57610acb611505565b602090810291909101015280610ae0816116a0565b915050610a86565b50600c54610af69082611537565b905060005b600654811015610b7c576004600060068381548110610b1c57610b1c611505565b6000918252602080832090910154600160a060020a0316835282019290925260400190206001015483610b4f8484611537565b81518110610b5f57610b5f611505565b602090810291909101015280610b74816116a0565b915050610afb565b5060065460031115610bd1576006545b6003811015610bcf57600183610ba28484611537565b81518110610bb257610bb2611505565b602090810291909101015280610bc7816116a0565b915050610b8c565b505b60015460405160e260020a6319d0dcd3028152600160a060020a0390911690636743734c90610c0d908890889088908890600290600401611650565b602060405180830381865afa158015610c2a573d6000803e3d6000fd5b505050506040513d601f19601f82011682018060405250810190610c4e919061159c565b610c9d5760405160e560020a62461bcd02815260206004820152601760248201527f496e76616c69642054616c6c79696e6720526573756c7400000000000000000060448201526064016103e3565b505050600b929092555050565b600854431015610cff5760405160e560020a62461bcd02815260206004820152601f60248201527f566f74696e67207068617365206973206e6f742079657420737461727465640060448201526064016103e3565b6009544310610d535760405160e560020a62461bcd02815260206004820152601e60248201527f566f74696e6720706861736520697320616c726561647920636c6f736564000060448201526064016103e3565b60068481548110610d6657610d66611505565b600091825260209091200154600160a060020a03163314610dcc5760405160e560020a62461bcd02815260206004820152601260248201527f556e7265676973746572656420766f746572000000000000000000000000000060448201526064016103e3565b6000610dd9600380611537565b67ffffffffffffffff811115610df157610df1611187565b604051908082528060200260200182016040528015610e1a578160200160208202803683370190505b509050856000602002015181600081518110610e3857610e38611505565b6020908102919091010152856001602002015181600181518110610e5e57610e5e611505565b60200260200101818152505060005b600654811015610eef576003600060068381548110610e8e57610e8e611505565b6000918252602080832090910154600160a060020a0316835282019290925260400190206001015482610ec2836002611537565b81518110610ed257610ed2611505565b602090810291909101015280610ee7816116a0565b915050610e6d565b5060065460031115610f45576006545b6003811015610f4357600182610f16836002611537565b81518110610f2657610f26611505565b602090810291909101015280610f3b816116a0565b915050610eff565b505b848160018351610f5591906116bb565b81518110610f6557610f65611505565b60209081029190910101526001805460405160e260020a6319d0dcd3028152600160a060020a0390911691636743734c91610fab91889188918891889190600401611650565b602060405180830381865afa158015610fc8573d6000803e3d6000fd5b505050506040513d601f19601f82011682018060405250810190610fec919061159c565b61103b5760405160e560020a62461bcd02815260206004820152601660248201527f496e76616c696420656e6372797074656420766f74650000000000000000000060448201526064016103e3565b336000908152600460205260409020611056908760026110ee565b5085517f183227397098d014dc2822db40c0ac2e9419f4243cdcb848a1f0fac9f8000000116108875761108a60fd866116eb565b60020a600c61109a60fd886116ff565b815481106110aa576110aa611505565b600091825260209091200180549091189055505050505050565b600681815481106110d457600080fd5b600091825260209091200154600160a060020a0316905081565b826002810192821561111c579160200282015b8281111561111c578251825591602001919060010190611101565b5061112892915061112c565b5090565b5b80821115611128576000815560010161112d565b8035600160a060020a038116811461115857600080fd5b919050565b6000806040838503121561117057600080fd5b61117983611141565b946020939093013593505050565b60e060020a634e487b7102600052604160045260246000fd5b6040805190810167ffffffffffffffff811182821017156111c3576111c3611187565b60405290565b604051601f8201601f1916810167ffffffffffffffff811182821017156111f2576111f2611187565b604052919050565b600067ffffffffffffffff82111561121457611214611187565b5060209081020190565b600082601f83011261122f57600080fd5b6112376111a0565b80604084018581111561124957600080fd5b845b8181101561126357803584526020938401930161124b565b509095945050505050565b600082601f83011261127f57600080fd5b6112876111a0565b80608084018581111561129957600080fd5b845b81811015611263576112ad878261121e565b845260209093019260400161129b565b600082601f8301126112ce57600080fd5b813560206112e36112de836111fa565b6111c9565b828152918102840181019181810190868411156112ff57600080fd5b8286015b8481101561131a5780358352918301918301611303565b509695505050505050565b6000806000806000610140868803121561133e57600080fd5b853567ffffffffffffffff8082111561135657600080fd5b818801915088601f83011261136a57600080fd5b8135602061137a6112de836111fa565b8281529181028401810191818101908c84111561139657600080fd5b948201945b838610156113b45785358252948201949082019061139b565b99506113c490508b8b830161121e565b975050506113d58960608a0161126e565b94506113e48960e08a0161121e565b93506101208801359150808211156113fb57600080fd5b50611408888289016112bd565b9150509295509295909350565b60006020828403121561142757600080fd5b5035919050565b600080600080610120858703121561144557600080fd5b84359350611456866020870161121e565b9250611465866060870161126e565b91506114748660e0870161121e565b905092959194509250565b6000806000806000610160868803121561149857600080fd5b6114a2878761121e565b9450604086013593506114b8876060880161121e565b92506114c78760a0880161126e565b91506114d787610120880161121e565b90509295509295909350565b6000602082840312156114f557600080fd5b6114fe82611141565b9392505050565b60e060020a634e487b7102600052603260045260246000fd5b60e060020a634e487b7102600052601160045260246000fd5b6000821982111561154a5761154a61151e565b500190565b606080825284519082018190526000906020906080840190828801845b828110156115885781518452928401929084019060010161156c565b505050908301949094525060400152919050565b6000602082840312156115ae57600080fd5b815180151581146114fe57600080fd5b8060005b60028110156115e15781518452602093840193909101906001016115c2565b50505050565b8060005b60028110156115e1576115ff8483516115be565b60409390930192602091909101906001016115eb565b600081518084526020808501945080840160005b8381101561164557815187529582019590820190600101611629565b509495945050505050565b600061014061165f83896115be565b61166c60408401886115e7565b61167960c08401876115be565b8061010084015261168c81840186611615565b915050826101208301529695505050505050565b60006000198214156116b4576116b461151e565b5060010190565b6000828210156116cd576116cd61151e565b500390565b60e060020a634e487b7102600052601260045260246000fd5b6000826116fa576116fa6116d2565b500690565b60008261170e5761170e6116d2565b50049056fea2646970667358221220de5f581ca3607ac33b84d5c860b48790800dcf7fb451f3f2f16744c592f2f27864736f6c634300080a0033",
  "immutableReferences": {},
  "source": "// SPDX-License-Identifier: UNLICENSED\r\npragma solidity^0.8.0;\r\nimport './verifier_MerkleTree.sol';\r\nimport './verifier_zkSNARK.sol';\r\n\r\ncontract eVote {\r\n    verifierMerkleTree vMerkleProof;\r\n    verifierZKSNARK vzkSNARK;\r\n\r\n    address public admin;\r\n    mapping(address=> uint[2]) public publicKeys;\r\n    mapping(address=> uint[2]) public encryptedVotes;\r\n    mapping(address=> bool) public refunded;\r\n    address[] public voters;\r\n    uint public constant nVoters = 3;\r\n    bytes32 public usersMerkleTreeRoot;\r\n    uint public finishRegistartionBlockNumber;\r\n    uint public finishVotingBlockNumber;\r\n    uint public finishTallyBlockNumber;\r\n    uint public constant DEPOSIT = 0.001 ether;\r\n    uint public voteResult;\r\n    uint[] public encryptedVotesXsign = [0];\r\n    uint public constant pm1d2 = 10944121435919637611123202872628637544274182200208017171849102093287904247808;\r\n    \r\n    constructor(\r\n            address _verifierMerkleTreeAddress, \r\n            address _verifierZKSNARKAddress, \r\n            bytes32 _usersMerkleTreeRoot, \r\n            uint _registrationBlockInterval, \r\n            uint _votingBlockInterval, \r\n            uint _tallyBlockInterval\r\n        ) payable {\r\n        require(msg.value==DEPOSIT,\"Invalid deposit value\");\r\n        vMerkleProof = verifierMerkleTree(_verifierMerkleTreeAddress);\r\n        vzkSNARK = verifierZKSNARK(_verifierZKSNARKAddress);\r\n        admin = msg.sender;\r\n        usersMerkleTreeRoot = _usersMerkleTreeRoot;\r\n        finishRegistartionBlockNumber = block.number+_registrationBlockInterval;\r\n        finishVotingBlockNumber = finishRegistartionBlockNumber + _votingBlockInterval;\r\n        finishTallyBlockNumber = finishVotingBlockNumber+_tallyBlockInterval;\r\n    }\r\n\r\n    function register(\r\n            uint[] memory _pubKey, \r\n            uint[2] memory proof_a, \r\n            uint[2][2] memory proof_b, \r\n            uint[2] memory proof_c, \r\n            bytes32[] memory _merkleProof\r\n        ) public payable{\r\n        require(msg.value==DEPOSIT,\"Invalid deposit value\");\r\n        require(voters.length + 1 <= nVoters, \"Max number of voters is reached\");\r\n        require(block.number<finishRegistartionBlockNumber,\"Registration phase is already closed\");\r\n        require(vMerkleProof.verifyProof(_merkleProof, usersMerkleTreeRoot, keccak256(abi.encodePacked(msg.sender))), \"Invalid Merkle proof\");\r\n        require(vzkSNARK.verifyProof(proof_a, proof_b, proof_c, _pubKey, 0),\"Invalid DL proof\");\r\n        voters.push(msg.sender);\r\n        publicKeys[msg.sender] = [_pubKey[0], _pubKey[1]];\r\n    }\r\n    function castVote(\r\n            uint[2] memory _encryptedVote, \r\n            uint _Idx, \r\n            uint[2] memory proof_a, \r\n            uint[2][2] memory proof_b, \r\n            uint[2] memory proof_c\r\n        ) public {\r\n        require(block.number >= finishRegistartionBlockNumber, \"Voting phase is not yet started\");\r\n        require(block.number < finishVotingBlockNumber, \"Voting phase is already closed\");\r\n        require( msg.sender == voters[_Idx], \"Unregistered voter\");\r\n        uint[] memory _publicSignals = new uint[](nVoters + 3);\r\n        _publicSignals[0] = _encryptedVote[0];\r\n        _publicSignals[1] = _encryptedVote[1];\r\n        for(uint i=0; i<voters.length; i++){\r\n            _publicSignals[i + 2] = publicKeys[voters[i]][1];\r\n        }\r\n        if (voters.length < nVoters){\r\n            for(uint i=voters.length; i<nVoters; i++){\r\n                _publicSignals[i + 2] = 1;\r\n            }\r\n        }\r\n        _publicSignals[_publicSignals.length-1] = _Idx;\r\n        \r\n        require(vzkSNARK.verifyProof(proof_a, proof_b, proof_c, _publicSignals, 1),\"Invalid encrypted vote\");\r\n\r\n        encryptedVotes[msg.sender] = _encryptedVote;\r\n\r\n        if (_encryptedVote[0] >= pm1d2){\r\n            encryptedVotesXsign[_Idx/253] ^= 1<<(_Idx%253);\r\n        }\r\n    }\r\n    function setTally(\r\n            uint _result, \r\n            uint[2] memory proof_a, \r\n            uint[2][2] memory proof_b, \r\n            uint[2] memory proof_c\r\n        ) public {\r\n        require(msg.sender==admin,\"Only admin can set the tally result\");\r\n        require(block.number >= finishVotingBlockNumber, \"Tallying phase is not yet started\");\r\n        require(block.number < finishTallyBlockNumber, \"Tallying phase is already closed\");\r\n        \r\n        uint[] memory _publicSignals = new uint[](nVoters + encryptedVotesXsign.length + 1);\r\n        _publicSignals[0] = _result;\r\n        uint offset = 1;\r\n        for(uint i=0; i<encryptedVotesXsign.length;i++){\r\n            _publicSignals[i + offset] = encryptedVotesXsign[i];\r\n        }\r\n        offset += encryptedVotesXsign.length;\r\n        for(uint i=0; i<voters.length; i++){\r\n            _publicSignals[i + offset] = encryptedVotes[voters[i]][1];\r\n        }\r\n        if (voters.length < nVoters){\r\n            for(uint i=voters.length; i<nVoters; i++){\r\n                _publicSignals[i + offset] = 1;\r\n            }\r\n        }        \r\n        require(vzkSNARK.verifyProof(proof_a, proof_b, proof_c, _publicSignals, 2),\"Invalid Tallying Result\");\r\n        voteResult = _result;\r\n    }\r\n    function refund() public{\r\n        require(block.number >= finishTallyBlockNumber, \"Invalid reclaim deposit phase\");\r\n        require(refunded[msg.sender] == false && (encryptedVotes[msg.sender][0] != 0 || msg.sender == admin),\"Illegal reclaim\");\r\n        refunded[msg.sender] = true;\r\n        payable(msg.sender).transfer(DEPOSIT);\r\n    }\r\n    \r\n}",
  "sourcePath": "/Users/william/zkSNARK-Open-Vote-Network/contracts/eVote.sol",
  "compiler": {
    "name": "solc",
    "version": "0.8.10+commit.fc410830.Emscripten.clang"
  },
  "schemaVersion": "3.4.8",
  "updatedAt": "2022-08-18T18:53:39.455Z",
  "networkType": "ethereum",
  "devdoc": {
    "kind": "dev",
    "methods": {},
    "version": 1
  },
  "userdoc": {
    "kind": "user",
    "methods": {},
    "version": 1
  }
}